:020000040800F2
:10000000606500209D010008B53800083D320008F9
:10001000B13800087D090008B1490008000000005F
:10002000000000000000000000000000313C00085B
:10003000D90D000800000000F13A00089D3C0008BE
:10004000B7010008B7010008B7010008B7010008B0
:10005000B7010008B7010008B7010008B7010008A0
:10006000B7010008B7010008B7010008BD0C00087F
:10007000B7010008CD0C0008B7010008DD0C00082E
:10008000ED0C0008B7010008B7010008B70100082F
:1000900081090008B7010008B7010008B70100088E
:1000A000B7010008B7010008B7010008B701000850
:1000B000B7010008B7010008893D0008B701000832
:1000C000B7010008B7010008B7010008B701000830
:1000D000B7010008B70100082D470008B701000864
:1000E000B7010008B7010008B7010008B701000810
:1000F000B7010008B7010008B7010008B701000800
:10010000B7010008B7010008B7010008B7010008EF
:10011000E53F00084D400008993D0008A93D000852
:10012000B7010008FD0C0008B7010008B70100087E
:10013000B7010008B7010008B7010008B7010008BF
:10014000B7010008F9090008B7010008B701000865
:10015000B70100080D0D0008B70100083D47000871
:10016000B7010008B7010008B7010008B70100088F
:10017000B7010008B7010008B7010008000000003F
:10018000B7010008B7010008DFF80CD000F0D8FA7A
:10019000004800473D710008606500200648804720
:1001A00006480047FEE7FEE7FEE7FEE7FEE7FEE75C
:1001B000FEE7FEE7FEE7FEE76D3D00088901000867
:1001C0002DE9F05F0546002092469B46884606468C
:1001D000814640241BE0284641464746224600F01F
:1001E000F8F953465A46C01A914110D311461846A1
:1001F000224600F0DFF92D1A67EB01084F46224630
:100200000120002100F0D6F917EB00094E41201E15
:10021000A4F10104DFDC484631462A464346BDE8E6
:10022000F09F40EA01039B0703D009E008C9121FB1
:1002300008C0042AFAD203E011F8013B00F8013BA0
:10024000521EF9D27047D2B201E000F8012B491ECC
:10025000FBD270470022F6E710B513460A46044663
:100260001946FFF7F0FF204610BD2DE9FE4F8046EE
:1002700081EA0300C00F0C46009021F0004123F0FA
:100280000045B8EB0200A94105D240462146904600
:100290001C460B46024623F00040104347D0270D72
:1002A000C7F30A00C3F30A510290401A0190402894
:1002B0006BDAC3F3130040F4801B0098924620B120
:1002C0000023D2EB030A63EB0B0B01985946C0F1F4
:1002D0004002504600F06EF906460D46504659461B
:1002E000019A00F086F910EB08006141002487EACA
:1002F000115284EAE7731A4340D0009A62B3019A1C
:10030000012A4FEA075215DC001B61EB02014FF096
:10031000004202EA0752CDE90042001C41F580117B
:1003200032462B4600F0BDF903B0BDE8F08F4046E1
:100330002146F9E7001B61EB0201001C41F5801327
:1003400000185B412018A2F5001747EB030140EAB3
:10035000D570B6196D4111E06D084FEA360645EAD1
:10036000C0754FEA0752001B61EB0201001C41F50A
:10037000801149084FEA30000019514132462B469E
:1003800003B0BDE8F04F00F07DB9009801224000B5
:100390000023D0EB020263EBE073009821464FEAA2
:1003A000E074B8EB000061EB0401E9E783F000437F
:1003B0005BE781F0004158E72DE9FE4F81EA030435
:1003C00004F0004421F0004100944FF0000B23F0B2
:1003D000004350EA01045ED052EA03045BD0C3F349
:1003E0000A54C1F30A552C44A4F2F3340194A0FB3F
:1003F0000254C1F3130141F48011C3F3130343F416
:10040000801301FB024400FB034E840A970A44EA6E
:10041000815447EA8357A4FB076802958D0A05FBC0
:1004200007854FEA932C04FB0C542705029D4FEAE5
:10043000065847EA1637B5EB08056EEB070C870E32
:10044000920E47EA811742EA8312A7FB0201B6EB3C
:100450000B0164EB00042B0D43EA0C335E1844EBF4
:100460001C50DA465146E7FB0201C5F313044FEA7C
:100470000B3343EA14534FEA0432019C43EA060368
:10048000A4F10C040294009CCDE900B400F009F939
:1004900003B0BDE8F08F00200146F9E730B5041E37
:1004A00071F1000404DB4FF00044404264EB0101B1
:1004B000141E73F1000405DB1C464FF0004352424A
:1004C00063EB0403801A994101D3012030BD002061
:1004D00030BD30B5041E71F1000404DB4FF0004460
:1004E000404264EB0101141E73F1000405DB1C465D
:1004F0004FF00043524263EB0403101A8B4101D3C7
:10050000012030BD002030BD0EB5C10F80EAE07083
:100510000844CA07002140F233438DE80E000A4622
:100520000B4600F0BEF803B000BD00F0004230F012
:1005300000400AD0C10D01F56071C0F3160042EA17
:100540000151C2084007114370470020014670471F
:1005500001F0004330B421F0004150EA010206D01E
:100560000A0DA2F56072C1F31301002A02DC30BC4F
:1005700000207047440F44EAC104C100E01830BCB9
:1005800000EBC25000F047B830B50B4601460020E2
:100590002022012409E021FA02F59D4205D303FA45
:1005A00002F5491B04FA02F52844151EA2F10102C6
:1005B000F1DC30BD202A04DB203A00FA02F10020F1
:1005C00070479140C2F1200320FA03F31943904091
:1005D0007047202A04DB203A21FA02F000217047FC
:1005E00021FA02F3D040C2F120029140084319469B
:1005F0007047202A06DBCB17203A41FA02F043EA83
:10060000E07306E041FA02F3D040C2F120029140CB
:100610000843194670470029A8BF7047401C49008D
:1006200008BF20F00100704710B4B0FA80FC00FA57
:100630000CF050EA010404BF10BC704749B1CCF182
:10064000200421FA04F411FA0CF118BF012121430E
:100650000843A3EB0C01CB1D4FEA00614FEA1020C9
:1006600042BF002010BC704700EBC350104400296B
:10067000A4BF10BC7047401C490008BF20F0010017
:1006800010BC704710B5141E73F1000408DA401C4A
:1006900041F1000192185B411A4301D120F00100A1
:1006A00010BD2DE9F04D92469B4611B1B1FA81F291
:1006B00002E0B0FA80F220329046FFF77BFF04465A
:1006C0000F4640EA0A0041EA0B0153465A460843E6
:1006D00013D0114653EA010019D0C8F14002504628
:1006E000FFF777FF05460E46504659464246FFF74C
:1006F00061FF084305D0012004E020463946BDE8EB
:10070000F08D0020054346EAE0762C4337430A98F3
:100710006305E40AA0EB08000022FD0A44EA4754FE
:100720000A3002D500200146E9E7010510196941A8
:10073000DDE9084500196941BDE8F04DA2E7000078
:10074000064C074D06E0E06840F0010394E807001E
:1007500098471034AC42F6D3FFF71AFD58AC0008A6
:1007600078AC000870B540F2E820C2F20000B0F9A1
:100770001220B0F9143000EE102A9FED7F1AB8EE67
:10078000C00AB0F9101080EE010A02EE103AB8EE7D
:10079000C22A82EE012A03EE101AB8EEC33A83EEA3
:1007A000013AB0F9160040F21C2604EE100AC2F21B
:1007B0000006B8EEC44AB07840F2AC3184EE011ABB
:1007C000C2F20001087040F21420C2F2000080ED75
:1007D000000A40F26810C2F2000080ED002A40F2E8
:1007E0006C10C2F2000080ED003A40F26820C2F2C4
:1007F0000000B0F8700040F27014C2F20004A4F8D7
:100800009800013840F21825B0FA80F0C2F20005D5
:10081000420940F6004085ED001A20EE010A22EE62
:10082000031AC4F202004FF4807184ED240A84EDAF
:10083000251A01F033FBD4F88800002841F6401057
:10084000C2F2000002D1016801310160006840F28B
:10085000DC51884224BF0120C4F88800D4F8880005
:10086000002808BF70BDD4F88C004AF6AB21C2F650
:10087000AA2150FB01F14A1002EBD17101EB4101B9
:10088000A0EB81000B281AD0082837D004286CD19F
:10089000B078E8B395ED000AB2EE0C1AB4EE410A56
:1008A000F1EE10FA42DD94F89A00012852D00028A7
:1008B0005BD140F20C00C2F2000080684FE040F2D1
:1008C0005C20C2F2000040F26021026840F2300376
:1008D000C2F20001C2F20003052653F822300E7066
:1008E000511C01600021C4F89C30042AC4F888100F
:1008F000A8BF0160D4F89C00804736E040F2602138
:10090000208BC2F2000104220A7003F0D5FF29E017
:1009100040F20C00C2F200000068C4F89C0080475E
:1009200040F26020C2F20000012111E0B4EE410A61
:10093000F1EE10FA19DA40F20C00C2F20000806801
:10094000C4F89C00804740F26020C2F200000321FE
:10095000017007E040F20C00C2F20000C068C4F869
:100960009C0080470020C4F88800D4F88C00013037
:10097000C4F88C0070BD00BF0000C842FEE7000054
:1009800080B540F6C030C2F2000000F0B7FC80BD78
:1009900010B582B040F69C3CC2F2000C40F2FF1E43
:1009A000CCF800E04FF0000ECCE902EE40F6DE0E8F
:1009B0000824C2F2000ECCF81040040A8EF80100A0
:1009C000080A8EF80200100A8EF80400180A8EF841
:1009D000060040F6C0308EF803108EF805208EF821
:1009E0000730C2F2000001AB614672468EF800404B
:1009F00000F032FB02B010BD80B540F6E830C2F224
:100A0000000000F07BFC80BD10B582B040F2C86CE5
:100A1000C2F2000C4FF4007ECCF800E04FF0000E64
:100A2000CCE902EE40F2804E0824C2F2000ECCF86F
:100A30001040040A8EF80100080A8EF80200100A1D
:100A40008EF80400180A8EF8060040F6C0308EF8C2
:100A500003108EF805208EF80730C2F2000001ABBB
:100A6000614672468EF8004000F0F6FA02B010BD02
:100A700010B582B040F69C3CC2F2000C40F2FF1E62
:100A8000CCF800E04FF0000ECCE902EE40F6DE0EAE
:100A90000824C2F2000ECCF81040040A8EF80100BF
:100AA000080A8EF80200100A8EF80400180A8EF860
:100AB000060040F6E8308EF803108EF805208EF818
:100AC0000730C2F2000001AB614672468EF800406A
:100AD00000F0C2FA02B010BD40F29840C2F200002D
:100AE0000068C8B140F21821C2F2000191ED000A7D
:100AF000B2EE0C1AB4EE410AF1EE10FA0DDAB4EED1
:100B0000410AF1EE10FAA8BF704740F27010C2F22D
:100B10000000002180F89A107047808AC00640F2D9
:100B20007010C2F200004CBF0121002180F89A1021
:100B30007047000030B1102804D80738072884BF58
:100B4000002070470120704702780B789A4212D13A
:100B500042784B789A420ED191F805C0531E012B72
:100B60000BD8097901234CEA0121013901EB5171BC
:100B700003EBE10102E0002070470021033A022A62
:100B800038BF4FEA4C018078C9B2401AB0FA80F001
:100B90004009704780B500F079F9B0FA80F040095B
:100BA00080BD00002DE9F04171B14B1E03EB537382
:100BB000DB08012616FA83FC1FFA8CFEE64509D0F5
:100BC0001FFA8CF0BDE8F0814FF0000C1FFA8CF09A
:100BD000BDE8F0810023002405E000BF0134744526
:100BE00003F10803ECD000EB0308002603E000BF8C
:100BF0000136082EF2D09F198F42F9D218F80670EC
:100C0000155DB7403D441555F2E70000B0B589B118
:100C1000831E002093F803C01FFA80FE02F80EC066
:100C200013F8024F4EF00105023001395455F1D14D
:100C300080B2B0BD002080B2B0BD00002DE9F0430D
:100C400081B00746040A4FF0FF3050FA97F09946FA
:100C500090460E460328C7F307250BD827F47F409C
:100C600040EA0520B1B200220023CDF8009002F046
:100C7000F1FF00E00020E4B20F2C01D0052C0AD1D6
:100C800027F47F4040EA0520B1B242460023CDF868
:100C9000009002F0DFFF102C01D0062C0AD127F4BF
:100CA0007F4040EA0520B1B200224346CDF80090D3
:100CB00002F0D0FF01B0BDE8F083000080B540F63F
:100CC000D040C2F2000000F09FFE80BD80B540F62B
:100CD0001040C2F2000000F097FE80BD80B540F6E3
:100CE0007040C2F2000000F08FFE80BD80B540F67B
:100CF0003050C2F2000000F087FE80BD80B540F6A3
:100D00009050C2F2000000F07FFE80BD80B540F63A
:100D1000F050C2F2000000F077FE80BDD0F800C0B5
:100D20006FF00F024AF6AB2352FA8CF2CAF6AA23EE
:100D30000146A2FB0330000905A31B5C40F2FF3013
:100D40002CEA00005F2A88BF0430C1E9160370470F
:100D500000061016000610168269816AB2F5005F5F
:100D600006D06AB9022912D0012914D0D1B90EE0F7
:100D7000032917D8DFE801F0020B020F01207047AA
:100D800003293CBF012070471CBF00207047C06A88
:100D9000C0F300607047C06AA0F1C070B0FA80F084
:100DA000400970470020704780B5D0F800C0D0F8E7
:100DB00008E0DCF80000BEF1400F20F48020CCF801
:100DC00000000846CCF8043004BF10460A46CCF8B0
:100DD0000800CCF80C2080BD70470000EFF31080B5
:100DE00072B600BFFEE70000F0B581B08AB11546CB
:100DF0000E460746002400BF38463146FFF7A4FEE2
:100E000048B90134A54206F10806F5D14FF0FF3488
:100E100001E04FF0FF34204601B0F0BD2DE9F0476E
:100E2000DDE90C5EDDE90A86DDE908A900F1030CC5
:100E3000022700BF0C782CB1C455013F7C1C01F186
:100E40000101F7D102F007000AF00F0163F38910E6
:100E500040EA81204CF20001C0F27F0101EA8931B1
:100E600008446FF39F266FF3DF2540EAC85046EA37
:100E70008521283041EA4E51CCF8000010EE100ACE
:100E8000CCF80410CCF80800BDE8F087D9B110B553
:100E90004AF2086C4AF2087E421EFF23C0F6000C9C
:100EA000C0F6000EFF2000BF12F8014F01395C4070
:100EB0001CF8043043401EF804000C06F4D119025B
:100EC000BDE8104002E04FF47F41FF20084380B2AC
:100ED000704700002DE9F047C0B0489F8A46010ADC
:100EE0007970010EB9704FF0FF3151FA90F19946C7
:100EF000030C03293870FB7005D89AFA8AF1090CA3
:100F00000626B98000E00426C0F307245AB1052C58
:100F100009D1107846F0010100F001004042B855B7
:100F20004E1C00207854B9F1000F09D0062C07D1CF
:100F300099F80100B919B85599F8000002364870BF
:100F4000E2B10F2C1AD14FEA1A200DF10608BD1993
:100F5000B8551FFA8AF11046424685F801A0FFF7FE
:100F600021FEF11CA87070B3A8F1010212F8013F34
:100F70004E1C89B27B5401383146F7D1B9F1000FCC
:100F800027D0102C25D14FEA1A20711CB2B2B854C8
:100F900088B20DF1060507F800A01FFA8AF148464D
:100FA0002A46B41CFFF732FEF11CA2B2B85478B145
:100FB0006A1E00BF12F8013F4E1C89B27B540138F3
:100FC0003146F7D105E00E46B9F1000FD9D100E066
:100FD0000E46B0B240B0BDE8F087000080B598B1D1
:100FE00081B14AF6560C0138C0F6000C10F801EF3A
:100FF000D3B283EA0E033CF8133092B2013983EA8C
:101000001222F3D190B280BD4FF6FF7290B280BD34
:1010100061B14AF2E43C0138C0F6000C10F8013F1F
:10102000D2B25A401CF802200139F7D1104670475D
:1010300090F82020013A012A04D8006800F1140237
:10104000002004E000F1240201204FF48021136805
:10105000194311607047000010B590F820E0D0F8F7
:1010600000C0AEF1010EBEF1010FDCF808E00DD8B2
:101070001EF0E05F10D0CEF3016EBEF1030F11D170
:1010800000F1240101204FF4000233E000F12401BB
:1010900001204FF480222DE000F1240101204FF4C3
:1010A000001227E0012000FA0EF01860886818B1DD
:1010B0004B6840EAC30001E008684005D1E9033409
:1010C00003430CEB0E10C0F88031C0F88441097D59
:1010D000012905D100F5C2710B6843F480730B60E0
:1010E0005168C0F88C11126800F5C071C0F88821F1
:1010F000002001220B681A430A6010BDB0B590F8B9
:101100002020013A012A2FD846F20060C4F20000E4
:10111000026842F001020260026822F47C5202601E
:10112000D1F814E0CC694A6A0368012C43EA022230
:1011300002600EF01F024FF0010303FA02F2C369CE
:101140006FEA020C23EA0203C36113D02CBBC3680D
:1011500003EA0C03C360CB688C8844EA034300EBCA
:10116000CE0423640B4611E0416A41F480214162C0
:101170000120B0BDC3681343C3600B688C8844EA88
:10118000034300EBCE04236401F10C038C681B883D
:1011900043EA044300EBCE04636443688D6943EA89
:1011A0000204D1F810E0096A002D08BF03EA0C041C
:1011B00044604369BEF1000F43EA020408BF03EA3A
:1011C0000C040129446102D1C1691143C161016864
:1011D00021F0010101600020B0BD00007047000057
:1011E00010B590F82040013C012C0CD8D0F800C07C
:1011F00079B1DCF81040A4070FD100F124010120DF
:101200004FF4001270E000F1240101204FF480221D
:101210006AE0DCF80C40A4076AD0046804EB011C07
:10122000DCF8B0410CF5D87E14F004049460DCF8CE
:10123000B04119BFE4085460640D1460DEF800404A
:10124000002904F00204D460DCF8B44104F00F0477
:101250001461DCF8B441C4F307249461DCF8B441B0
:101260004FEA14445461DCF8B8211A70026802EBAA
:101270000112D2F8B8214FEA12225A70026802EB2A
:101280000112D2F8B8214FEA12429A70026802EBBA
:101290000112D2F8B8214FEA1262DA70026802EB4A
:1012A0000112D2F8BC211A71026802EB0112D2F8C5
:1012B000BC214FEA12225A71026802EB0112D2F8E5
:1012C000BC214FEA12429A71026802EB0112D2F875
:1012D000BC214FEA1262DA71006814BF00F11001FC
:1012E00000F10C01002020220B681A430A6010BD97
:1012F00000F1240101204FF40012F5E72DE9F04F31
:1013000081B0044600684669D0F804908768D0F838
:101310000CB0D0F810A0D0F81880F10703D1002548
:1013200030071CD423E0F90710D00121BA078160EF
:1013300009D4780700F1AA80380700F1B080204670
:1013400000F0FAFA02E0204600F0F8FA0025F8056D
:1013500000F18480F80300F1AA80300707D51BF064
:10136000100004D0206845F400751021C16070079A
:1013700008D51BF0080005D020680821C160204670
:1013800000F0E4F9B00706D52068C068800702D0F5
:10139000204600F0DDF9700607D51AF0100004D0E1
:1013A000206845F4806510210161B00608D51AF067
:1013B000080005D0206808210161204600F0FAF9F4
:1013C000F00606D520680069800702D0204600F0AC
:1013D000F3F9B00308D519F0100005D020681021EA
:1013E0004160204600F078FAF00308D519F00800B3
:1013F00005D0206808214160204600F0A9FA300499
:1014000040F18F805FEA497040F1888006F4807077
:1014100008EA102028435FEA8871014648BF41F07E
:101420000201B20558BF01465FEA48700D4648BF49
:1014300045F00405700558BF0D4630056ED518F00F
:1014400070006BD010380009052862D8DFE800F082
:10145000035356595C5F45F008055AE020684FF485
:101460008071BA0581600AD4780512D4380519D480
:10147000204600F065FAF8037FF56FAF17E02046CD
:1014800000F060FAF8037FF568AF10E04FF40065F4
:101490005DE705F50055F8037FF55FAF07E04FF412
:1014A000805554E705F58045F8037FF556AF206871
:1014B0004FF48031BA0381600AD478030FD4380323
:1014C00013D4204600F040FA30073FF548AF4EE70E
:1014D000204600F03BFA30073FF541AF47E705F5FE
:1014E000004530073FF53BAF41E705F58035300754
:1014F0003FF535AF3BE745F010050AE045F0200524
:1015000007E045F0400504E045F0800501E045F4C2
:1015100080752068816921F0700181612068042153
:1015200041602DB1606A284360622046FFF756FE95
:1015300001B0BDE8F08F0000B0B5C8B1044690F826
:10154000200010B9204600F071F82068016821F0F1
:101550000201016000F0A8FC054600BF2068416858
:10156000890707D500F0A0FC401B0B28F6D312E03A
:101570000120B0BD016841F00101016000F094FC60
:10158000054600BF20684168C9070DD100F08CFCFA
:10159000401B0B28F6D3606A052140F400306062DE
:1015A000012084F82010B0BD217E0268012922F0BC
:1015B000800208BF80320260617E0268012922F049
:1015C000400208BF40320260A17E0268012922F079
:1015D000200208BF20320260E17E0268012922F069
:1015E000100218BF10320260217F0268012922F028
:1015F000080208BF08320260617F0268012922F0F8
:10160000040208BF04320260D4E901C2D4E9033500
:1016100061691A432A431143ACF101021143C161CC
:1016200000200121606284F82010B0BD10B586B0A2
:101630000021CDE90411CDE90211006846F600024F
:10164000C4F200029042019134D046F20041C4F24B
:101650000001884278D140F26421C2F200010A6898
:1016600043F64000C4F20200531C0B6052B9002143
:101670000091016841F000710160016801F00071A2
:10168000009100990021009150F8101C142441F0A1
:10169000080140F8101C50F8100C00F008000090F1
:1016A00000980320019040F20040C4F2020000F5CF
:1016B000006036E043F64000C4F202000091016889
:1016C00041F080610160016801F080610091009942
:1016D00040F26421C2F200010A68531C0B6052B947
:1016E00000210091016841F000710160016801F082
:1016F0000071009100990021009150F8101C4124C4
:1017000041F0020140F8101C50F8100C00F00200EB
:10171000009000984FF44050019040F20040C4F215
:101720000200022102910021039103210491092169
:10173000059101A900F0DCFA20460521002200F005
:1017400053FC204600F04CFC06B010BD7047000072
:1017500080B58AB003AA01AB0021FFF741FD0398D1
:10176000A0F20121072923D8411EBDF80430CAB2D6
:10177000920040F2D23C1BBA52FA81F1C2F2000C44
:101780001B0C3CF811202CF81130BDF806300CEB86
:1017900041010A811ABABDF80830120C4A801ABAFF
:1017A0009DF80A30120CC0B28A808B7104F032F9B5
:1017B0000AB080BD7047000080B58AB003AA6B46AE
:1017C0000121FFF70DFD0398B0F5806F29DAA0F233
:1017D000052104297DD2411EBDF80030CAB2920015
:1017E00040F2224C1BBA52FA81F1C2F2000C1B0CDF
:1017F0003CF811202CF81130BDF802300CEB4101FF
:101800000A811ABABDF80430120C4A801ABA9DF83F
:101810000630120CC0B28A808B7104F0FBF80AB05B
:1018200080BDB0F5A06F0EDAB0F5806F2BD0B0F5AB
:101830008A6F4ED19DF8000041F29C71C2F2000106
:1018400008770AB080BD32D0B0F5C06F41D141F207
:101850009C70DDE90012C2F20000C0E9051241F6F9
:101860005710C2F20000C0F80110C0F8052041F284
:101870006400C2F20000016046F25410C2F200009F
:1018800002600AB080BDDDE9000141F63012C2F20B
:101890000002C2E90001092004F0BCF840F2E46053
:1018A000C2F200000168013101600AB080BDDDE9CB
:1018B000000141F63812C2F20002C2E9000109201B
:1018C00004F0A8F840F2E460C2F2000001680131BF
:1018D00001600AB080BD000070470000B0B504464A
:1018E00090F8200001281DD1022084F820002068F3
:1018F000016821F00101016000F0D6FA054600BF41
:1019000020684068C00713D000F0CEFA401B0B28B7
:10191000F6D3606A40F400306062052084F820004D
:101920000120B0BD606A40F4002060620120B0BDBB
:1019300000206062B0BD00007047000070470000EA
:1019400070470000704700007047000070470000BB
:101950007047000070B5866D044600F0A5FA94F853
:101960003510022928D105462068216C026822F032
:1019700016020260426922F08002426109B9A16C3C
:1019800019B1016821F008010160016821F001012D
:10199000016000BF20680068C00714D000F084FA1E
:1019A000401B0628F6D320206065002084F8340010
:1019B000032084F8350070BD80206065002084F825
:1019C0003400012070BDE06D3F2101FA00F0B060ED
:1019D0000020012184F8340084F8351070BD000027
:1019E00090F83510022909D1052180F835100068DA
:1019F000016821F0010101600020704780214165EC
:101A000001207047406D7047F0B581B0044600205A
:101A1000009040F24400C2F200000268D4E916606F
:101A200048F2B51337680821C1F64E338140394278
:101A3000A2FB03250CD0226813685B0708D5136846
:101A400023F004031360B160616D41F00101616531
:101A500001218140394208D022685269120604D51A
:101A6000B160616D41F0020161650421814039423C
:101A700008D022681268920704D5B160616D41F008
:101A80000401616510218140394215D02068026847
:101A9000120711D5B16002680168520306D4C90566
:101AA00006D4016821F00801016001E0080342D476
:101AB000216C09B120468847E16D202000FA01F22F
:101AC0003A4244D020680368DB0640D5B26094F8FF
:101AD00035300268052B1ED122F0160202604269E1
:101AE00022F080024261226C0AB9A26C1AB102682B
:101AF00022F0080202603F208840B060002084F895
:101B00003400012084F83500216D002940D02046A2
:101B1000884701B0F0BD0168520310D4C90512D442
:101B2000016821F010010160002084F834000120D8
:101B300084F8350007E0A16C0029BBD1BCE708039D
:101B400001D4616C00E0E16B09B120468847606D0B
:101B5000F0B1606DC00717D0052084F8350020680B
:101B6000A90A026822F00102026000BF009A013255
:101B70008A42009202D80268D207F7D1002084F886
:101B80003400012084F83500E16C09B12046884713
:101B900001B0F0BD2DE9F041044600F085F9C4B173
:101BA0000546002084F83400022084F835002068BF
:101BB000016821F00101016026683068C0070BD080
:101BC00000F072F9401B0528F6D9032120220320DA
:101BD00042E00120BDE8F081306848F23F01CFF2D9
:101BE0001001251D00EA010C2ECDD4E9050E41EAB5
:101BF0000C01114319432943D4E90778084340EA0B
:101C00000E01606A3943042841EA080103D1D4E98E
:101C10000B231143194331607169042821F0070136
:101C200041EA00050CD1D4E90A1045EA010538B1B2
:101C30002046FFF791F818B10121402201200BE066
:101C400020467561FFF76AF8E16D3F2202FA01F163
:101C50008160002201210020626584F83510BDE812
:101C6000F0810000B0B5044690F83400012828D077
:101C7000012084F83400A56D94F8350001281DD1A9
:101C8000022084F83500002060652046FFF78CF8BC
:101C9000E26D3F23206803FA02F2216CAA60026819
:101CA00042F01602026019B1016841F008010160BA
:101CB000016841F0010101600020B0BD002084F8FE
:101CC00034000220B0BD0000B0B5044600F0ECF8CE
:101CD000054640F27800C2F200000078611C18BF8F
:101CE000044400BF00F0E0F8401BA042FAD3B0BDAE
:101CF0002DE9F04F83B000F13E4202F1FF7243F64E
:101D0000004E4FEAB22241F60047C4F2010E0192A2
:101D1000C4F2020708224FF0010B00254FF0000823
:101D20004FF00009B84208BF072200920AE000BF46
:101D300009F1010908F10408B9F1100F05F10205D4
:101D400000F0A1800F680BFA09F417EA040CEFD039
:101D5000D1F804A0BAF1120F15D80BFA0AF717F050
:101D6000061F10D087680322CE68AA4027EA020225
:101D7000AE40324382604268A243CAF3001404FAC0
:101D800009F422434260C26803238E6803FA05F413
:101D9000A2436FEA040B06FA05F422434AF010044A
:101DA000122CC2600FD16FF0030202EA5902024402
:101DB00008F01C060F23146A03FA06F70B69BC43EC
:101DC000B3402343136202684B6802EA0B0203F03C
:101DD0000304AC402243DB004FF0010B0260A7D5A7
:101DE000002243F644030292C4F202031A684FF63B
:101DF000084A42F480421A601A68CFF6FF7A02F469
:101E000080420292029A29F00302724452F80A3088
:101E100008F00C040F26A640019FB343009E072F35
:101E200038BF3E4606FA04F4234342F80A30DEF88F
:101E300000204B6842EA0C04DE0358BF22EA0C047F
:101E4000CEF80040DEF804209E0342EA0C0458BF9E
:101E500022EA0C04CEF80440DEF80820DE0242EA52
:101E60000C0458BF22EA0C04CEF8084043F60C4498
:101E7000C4F2010422689B0242EA0C0358BF22EA22
:101E80000C03236054E703B0BDE8F08F42690A40B9
:101E90008A4208BF0904816170470000002A08BF18
:101EA000090481617047000045F67810C2F2000015
:101EB0000068704740F2780045F67811C2F20000E1
:101EC000C2F2000100780A68104408607047000000
:101ED00080B543F60040C4F20200016841F400718D
:101EE0000160016841F480610160016841F4807122
:101EF0000160032000F088F8002000F005F800F0F1
:101F00004BF8002080BD000010B586B00146372098
:101F10000022002400F068F8372000F061F843F652
:101F200040000194C4F20200016841F02001016008
:101F30000068694600F020000190019801A800F0B7
:101F400017F900F03BF94DF683614000C4F21B31F4
:101F5000A0FB01014FF0FF3000EB914140F6D8604B
:101F600041F20042C2F20000C4F2000240F2E73344
:101F7000C0E90021C0E90243046100F073FB10B125
:101F8000012006B010BD40F6D860C2F2000000F09B
:101F9000BFFB06B010BD000080B582B0002043F644
:101FA00040010190C4F202014A6842F480424A6052
:101FB0004A6802F480420192019A00900868002267
:101FC00040F08050086008680F2100F080500090B9
:101FD00000986FF0010000F007F802B080BD00002B
:101FE00080B502F007FD80BD70B514460D4606466B
:101FF00002F010FD2946224601F05EFC0146304603
:1020000002F010FD70BD000080B502F01DFD80BD26
:102010002DE9F041002800F08B8043F60808C4F257
:1020200002080446D8F8F8030D4600F00F00884275
:1020300007D288F8F853D8F8F80300F00F00A84248
:1020400076D12068810717D5410705D5D8F800104B
:1020500041F4E051C8F80010010705D5D8F8001088
:1020600041F46041C8F80010D8F80010A26821F0CF
:10207000F0011143C8F80010C0073FD1D8F8F803A9
:1020800000F00F00A84207D988F8F853D8F8F803F1
:1020900000F00F00A8424BD12068410707D5D8F8BF
:1020A0000010E26821F4E0511143C8F80010000765
:1020B00008D5D8F80000216920F4604040EAC1004A
:1020C000C8F8000000F09EF8D8F800104AF2CC32B0
:1020D000C1F30311C0F60002515C40F2440220FA41
:1020E00001F140F27C00C2F200000068C2F200027E
:1020F0001160FFF709FF0020BDE8F0816068811ED4
:10210000022907D258F8081C89015CBF0120BDE8EC
:10211000F08110E0012807D158F8081C89035CBF42
:102120000120BDE8F08106E058F8081C890702D4B8
:102130000120BDE8F081D8F8001021F00301084328
:10214000C8F80000FFF7B0FE064641F2883700BF2E
:10215000D8F80000616800F00C00B0EB810F8DD062
:10216000FFF7A2FE801BB842F2D90320BDE8F08140
:102170000F22026043F60802C4F20202136803F061
:1021800003034360136803F0F0038360136803F4F0
:10219000E053C360D2F800C04FF4E05303EADC031D
:1021A0000361D2F8F80300F00F00086070470000E8
:1021B00040F24400C2F200000068704780B5FFF7AB
:1021C000F7FF43F60801C4F2020109684AF2DC3263
:1021D000C1F38221C0F60002515CC84080BD0000FE
:1021E00080B5FFF7E5FF43F60801C4F20201096874
:1021F0004AF2DC32C1F34231C0F60002515CC84001
:1022000080BD000010B543F60404C4F20204606807
:1022100000F00C0142F200400829C0F2F40007D09F
:10222000042918BF10BD41F20020C0F27A0010BD91
:10223000216801F03F02216823684902C3F3881135
:1022400005D4A1FB00010023FDF7BAFF06E041F22F
:102250000020C0F27A004843B0FBF2F0216802226D
:10226000C1F3014102EB4101B0FBF1F010BD0000F0
:102270002DE9F04182B0002800F0988004460078F3
:1022800043F60006C007C4F2020643D0B06800F06F
:102290000C00042805D1306880033BD56068C8BBBA
:1022A00084E0B06800F00C00082802D17068400299
:1022B000F1D46568B5F5A02F0AD0B5F5803F0BD0F5
:1022C000306820F480303060306820F4802006E0F0
:1022D000306840F480203060306840F480303060F6
:1022E000FFF7E2FD002D054611D000BF30688003E6
:1022F00010D4FFF7D9FD401B6428F7D918E100BFBF
:10230000FFF7D2FD401B64284FF003004BD8306824
:102310008003F5D42078800719D5B06810F00C0F31
:1023200008D0B06800F00C00082840F08080706889
:1023300040027CD43068800702D5E068012835D19E
:102340003068216920F0F80040EAC1003060207850
:1023500000072FD42078400743D4A56915B3B0688F
:1023600000F00C00082840F09580012D1ED0706808
:10237000E16900F480028A4218D1216A00F03F022C
:102380008A4213D147F6C071626A014091420DD171
:10239000A16A00F440328A4208D1E16A00F070601C
:1023A000884203D1002002B0BDE8F081012002B0D4
:1023B000BDE8F0816069002840F20000C4F24720C7
:1023C00057D00121C0F8801EFFF76EFD054600BF03
:1023D000706F8007BED4FFF767FD401B0228F7D956
:1023E000A6E0306C10F080580AD100200190306CCB
:1023F00040F080503064306C00F0805001900198C3
:1024000047F20007C4F200073868C00524D43868D2
:1024100040F480703860FFF747FD05463868C00516
:102420001AD4FFF741FD401B0228F7D980E0E0688D
:10243000002851D00020C4F2472001210160FFF79D
:1024400033FD0546306880073FF57AAFFFF72CFD76
:10245000401B0228F6D96BE0A568052D50D0012D50
:1024600052D0306F20F001003067306F20F0040050
:102470004DE00021C0F8801EFFF716FD054600BFA5
:10248000706F80077FF566AFFFF70EFD401B0228D7
:10249000F6D94DE00027C4F2472700203866FFF741
:1024A00003FD022D05460BD13068800158D5FFF79A
:1024B000FBFC401B02284FF00300F5D973E700BF77
:1024C000306880017FF56EAFFFF7EEFC401B0228FD
:1024D0004FF00300F4D966E70020C4F24720002142
:1024E0000160FFF7E1FC0546306880077FF52FAFFC
:1024F000FFF7DAFC401B02284FF00300F4D952E743
:10250000306F40F004003067306F40F001003067FA
:10251000FFF7CAFC002D054641F2883714D000BFF2
:10252000306F800713D4FFF7BFFC401BB842F7D9C8
:10253000032002B0BDE8F081FFF7B6FC401BB842B3
:102540004FF003003FF62FAF306F8007F4D4B8F19F
:10255000000F7FF402AF306C20F080503064FCE656
:1025600004F11C052FCD084340EA8210D9034FF631
:10257000FF729143A1F5803140EA05600843706025
:1025800001203866FFF790FC044600BF30688001E8
:102590003FF508AFFFF788FC001B02284FF003004F
:1025A000F4D900E7704700007047000010B590F8BC
:1025B0003C20012A4FF0020252D0012380F83C3027
:1025C00080F83D200268D2F804E0D2F808C00C6818
:1025D0002EF07003234341F2FF74C4F20004A242C0
:1025E00053600DDC40F2FF73C4F200039A4215DC25
:1025F000B2F1804F29D040F20043C4F2000322E040
:1026000040F2FF33C4F201039A4212DC41F60003A8
:10261000C4F200039A4218D0002312E040F60003EF
:10262000C4F200039A4210D040F60043C4F2000303
:1026300009E044F20003C4F201039A4205D040F2DB
:102640000043C4F201039A4204D149682CF080038C
:10265000194391600121002280F83D1080F83C2050
:10266000104610BD002804BF0120704710B5044675
:1026700090F83D0028B9002084F83C00204600F086
:102680000DF8022084F83D002068211D01F094FB24
:10269000012084F83D00002010BD000010B582B07C
:1026A000006841F20001C4F20001884216D040F6F1
:1026B0000001C4F20001884228D10020019043F6B5
:1026C0004000C4F2020001681E2441F004010160D0
:1026D000006800F00400019001980FE000200090D5
:1026E00043F64000C4F202000168362441F01001B4
:1026F0000160006800F0100000900098204605215D
:102700000022FFF771FC2046FFF76AFC02B010BD03
:102710000068C16841F00101C160816801F00701F2
:10272000062903D0016841F00101016000207047D3
:1027300010B5044690F83C0001284FF0020008BF95
:1027400010BD012284F83C2084F83D0020684FF63B
:10275000777382689A4382600A683F2A14DD5F2A91
:1027600018DD602A28D0B2F5005F2DD0702A40D144
:10277000D1E9012CCB68614601F0B0FB206881688B
:1027800041F07701816034E01F2A0FDC92B1102AFA
:1027900010D02EE0402A23D0502A2AD14B68CA6894
:1027A000194601F0AFFB2068502120E0202A01D01B
:1027B000302A1ED111461AE04B68CA68194601F04A
:1027C000B3FB2068602112E0D1E9012CCB6861469F
:1027D00001F084FB2068816841F48041816008E059
:1027E0004B68CA68194601F08DFB2068402101F052
:1027F00081FB012084F83D00002084F83C0010BDDE
:102800007047000010B5044600680169890744BF9D
:10281000C1685FEA817138D420680169490744BF03
:10282000C1685FEA41713CD420680169090744BF6F
:10283000C1685FEA017141D420680169C90644BFDB
:10284000C1685FEAC16145D420680169C9071CBF3E
:10285000C1685FEAC1714AD120680169090644BFB5
:10286000C1685FEA016149D420680169490644BF33
:10287000C1685FEA416148D420680169890644BFA4
:10288000C1685FEA816147D410BD6FF00201016148
:10289000012121778069800745D02046FFF7B0FFEE
:1028A00047E06FF00401016102212177806910F493
:1028B000407F41D02046FFF7A3FF43E06FF00801BF
:1028C000016104212177C06980073ED02046FFF7CF
:1028D00097FF40E06FF01001016108212177C06986
:1028E00010F4407F3AD02046FFF78AFF3CE06FF0BB
:1028F00001010161204600F03FF8ADE76FF0800173
:1029000001612046FFF74EFEAEE76FF04001016126
:10291000204600F051F8AFE76FF02001016120463A
:10292000FFF742FE10BD204600F022F8204600F0DE
:1029300021F8002020776FE7204600F019F82046A4
:1029400000F018F8002020776EE7204600F010F81D
:10295000204600F00FF8002020776DE7204600F0B9
:1029600007F8204600F006F8002020776CE700000A
:10297000704700007047000080B5006841F20041D8
:10298000C4F20001884213D040F69860C2F2000001
:102990000068C168C90708BF80BD45F26C51C2F22A
:1029A00000010A6801320A606FF00101016180BD17
:1029B000FFF780FA80BD00007047000010B50446A4
:1029C0000068C16821F49071C160416921F0010182
:1029D00041614169490613D5416921F040014161D6
:1029E000606B68B100210165FEF7B4FF40B1606B18
:1029F000FFF708F8202803D11020E063032010BD62
:102A000000202021E08584F83A1010BD70470000B6
:102A100010B5026804461068D168536900F02F02AF
:102A2000202A01F0200204D11AB1204601F0FEFB59
:102A300010BD5FEA007C1EBF03F0010E01F490732D
:102A400013EB0E030DD10840010606D4400658BF13
:102A500010BD204601F0D4FB10BD204601F0DCFC87
:102A600010BDC30718BF11F4807302D1430706D409
:102A70000CE0E36B43F00103E363430706D5BEF1CB
:102A8000000F03D0E36B43F00203E363830706D533
:102A9000BEF1000F03D0E36B43F00403E363BCF12A
:102AA000000F06D552EA0E0203D0E26B42F0080294
:102AB000E263E26B002ACFD00840800602D52046B0
:102AC00001F0B4FB20684069E16B00F0400001F0C8
:102AD000080140181DD0204601F084FB20684169A0
:102AE000490612D5416921F040014161606B60B136
:102AF00044F20D11C0F600010165FEF771FF0028D8
:102B0000AAD0606B016D884710BD2046FFF77EFF9D
:102B100010BD2046FFF77AFF0020E06310BD0000E3
:102B2000002804BF0120704710B5044690F8390012
:102B300028B9002084F83800204600F021F824202D
:102B400084F839002068C16821F40051C160204632
:102B500001F0ACFB2068016921F4904101614169F9
:102B600021F02A014161C16841F40051C160002097
:102B70002021E06384F8391084F83A1010BD000079
:102B80002DE9F04F87B00446006844F6FF71C4F2A7
:102B9000000188424FF000010691CDE90411CDE912
:102BA000021140F3828045F20001C4F20001884224
:102BB00000F0FA8041F20001C4F20101884200F005
:102BC000668141F20041C4F20101884240F0DB819C
:102BD000002643F630000196C4F20200416946F235
:102BE000100841F0200141614169C4F2020801F07E
:102BF0002001019101990196016841F004010160F1
:102C0000006802A900F0040001900198C020029021
:102C10000220CDE90306032005900820069000203D
:102C2000C4F2020000F50060FFF762F840F690552C
:102C300008F58360C2F200054FF020674FF4806909
:102C4000C5E900072846C5E90266C5E90496C5E955
:102C50000666C5E90866FEF79DFF002818BFFEF767
:102C6000BDF86563AC6340F6F05508F59260C2F2BA
:102C700000054021C5E9000705F1080080E842028F
:102C80002846C5E90566C5E907666E62FEF782FF5C
:102C9000002818BFFEF7A2F847200521002225636F
:102CA000AC63FFF7A1F94720ECE044F20041C4F225
:102CB0000001884200F0188144F60041C4F200018E
:102CC000884240F06081002643F630000196C4F24D
:102CD00002000169032741F400210161016946F204
:102CE000100801F400210191019901960168C4F2D4
:102CF000020841F001010160006802A900F0010032
:102D0000019001980220039001200297CDE9040769
:102D1000082006900020C4F20200FEF7E9FF40F60A
:102D2000104508F13000C2F200054FF0006A4FF480
:102D30008069C5E9000A4FF4403B0420C5E90266FA
:102D4000C5E90496C5E90666C5E908B02846C5E99F
:102D50000A762E63FEF71EFF002818BFFEF73EF826
:102D60006563AC6340F6704508F16000C2F200058F
:102D70004021C5E9000A05F1080080E84202284622
:102D8000C5E90566C5E9076B6E62FEF703FF00281B
:102D900018BFFEF723F83420052100222563AC6319
:102DA000FFF722F934206DE0002643F6300001964B
:102DB000C4F202000169002741F480110161016938
:102DC000C4F2020701F48011019101990196016892
:102DD00002AD41F00401016001684FF0020801F00A
:102DE000040101910199019601684FF0010941F038
:102DF0000801016000684FF0030A00F0080001902C
:102E000001984FF4805002904FF0080B07F50060D6
:102E10002946CDF80C80CDF81090CDF814A0CDF84F
:102E200018B0FEF765FF042002A981E8010F07F53D
:102E300040602946FEF75CFF40F6D04546F21000A0
:102E4000C2F20005C4F202004FF000614FF480624C
:102E500085E843004FF40030C5E90362C5E9056623
:102E6000EE61C5E908062846FEF794FE002818BF63
:102E7000FDF7B4FF3520052100226563AC63FFF741
:102E8000B3F83520FFF7ACF807B0BDE8F08F0020AD
:102E900043F630010190C4F202014A6942F0100287
:102EA0004A614A6902F010020192019A01900A688F
:102EB00042F002020A60096801F0020101910199E1
:102EC000C02102910221CDE90310032005900720C3
:102ED00006900020C4F2020000F5806002A9FEF70F
:102EE00007FF07B0BDE8F08F002643F630000196DB
:102EF000C4F20200016941F400310161016901F489
:102F00000031019101990196016841F001010160D0
:102F1000006802A900F00100019001980C200290C5
:102F20000220CDE90306032005900720069000202B
:102F3000C4F20200FEF7DCFE46F21000C4F202000A
:102F400040F630557830C2F200054FF000614FF482
:102F5000806285E843002846C5E90362C5E9056645
:102F6000C5E907666E62FEF715FE002818BFFDF77B
:102F700035FF2620052100226563AC63FFF734F896
:102F80002620FFF72DF807B0BDE8F08F70B582B0AE
:102F9000054690F83A00202809D113460A4641B167
:102FA0004BB195F83800012807D1022439E00224FA
:102FB00037E0012435E0012433E0012085F83800B2
:102FC00000242220AA62AB85EC6385F83A002E68C3
:102FD000686B44F2691C44F2A11E44F21D11C0F654
:102FE000000CC0F6000EC0F60001C0E90FCEC0E92B
:102FF0001314311DFEF736FE019428680168019113
:1030000041680191019985F83840C16841F48071A7
:10301000C160416941F001014161416941F04001F4
:103020004161204602B070BD70470000704700004B
:103030002DE9F041044690F8390020280DD10E46C4
:1030400000294FF0010052D01746002A08BFBDE802
:10305000F08194F83800012802D10220BDE8F08107
:10306000012084F838004FF0000821201D46C4F8E4
:103070003C8084F83900FEF717FFA784E78484F8C2
:103080003880E18C804661B92046402142462B467B
:1030900001F0F0F938B30320BDE8F081E08C00289E
:1030A000F2D0E08C80210138E084A76820464246B7
:1030B0002B4601F0DFF9B7F5805F0DD10028EAD18A
:1030C0003088216922686FF35F200029506014BFA7
:1030D00001360236E2E700BF0028DCD116F8010B0A
:1030E00021684860DAE7202084F839000020BDE834
:1030F000F081000070B5054690F8390020281CBF0B
:10310000022070BD99B313468AB395F838000128A0
:1031100004BF022070BD012085F838000024212062
:103120002962AB84EB84EC6385F839002E68286B48
:1031300044F2AD1C44F2D91E44F21D12C0F6000C3C
:10314000C0F6000EC0F60002C0E90FCEC0E913249D
:10315000321DFEF787FD28686FF04001016085F899
:103160003840416941F080014161204670BD012035
:1031700070BD000070470000704700002DE9F0416D
:10318000C0B0E8461C4615460E4607460846194696
:103190004246002300F0DAFE3078BF6A2946224614
:1031A0004346B84740B0BDE8F08100002DE9F0414A
:1031B000C0B00DF106081C4615460E4607460846E7
:1031C00019460022434600F0C1FE30783F6B294685
:1031D00022464346B84740B0BDE8F0812DE9F041B2
:1031E000C0B00DF106081C4615460E4607460846B7
:1031F00019460022434600F0A9FE30787F6B29462D
:1032000022464346B84740B0BDE8F0812DE9F04181
:10321000C0B0E8461C4615460E4607460846194605
:103220004246002300F092FE3078FF6A294622468B
:103230004346B84740B0BDE8F0810000FEE700001B
:1032400010B5FF2928BFFF2101840021418442627B
:10325000C0E90011C0E90211C0E90411C0E906117A
:1032600044F61911C0F60001002B18BF1946DDE91C
:10327000024E816244F68D11C0F60001002C18BF89
:103280002146C16244F63D11C0F60001BEF1000FB7
:1032900018BF7146DDF810C0016344F66511C0F631
:1032A0000001BCF1000F18BF6146416310BD000072
:1032B0002DE9F043DDE90B6CDDE9099EDDE90785C9
:1032C000022700BF0C782CB1C455013F7C1C01F1D2
:1032D0000101F7D1D0F80310D0F80B4002F007023B
:1032E00043F6C7776FF3DF26B94308F00F076FF394
:1032F0009F256FF3DF29B60263F389126FF39F24D2
:1033000042EA872245EA892346EA4C5743EA4E536C
:1033100011443A19C0F80730C0F80B20C0F8031068
:10332000BDE8F08380B540F6C03046F20041C2F2FD
:103330000000C4F200010322002380E80E0000F127
:103340000C014FF4102C4FF4001E81E808508361EB
:103350008383FEF7F1F8002818BFFDF73FFD80BD1D
:1033600080B540F6E83046F60001C2F20000C4F233
:1033700000010322002380E80E0000F10C014FF44D
:10338000102C4FF4001E81E8085083618383FEF700
:10339000D3F8002818BFFDF721FD80BD80B582B0AD
:1033A000002043F630010190C4F202010A6842F4A1
:1033B00000120A600A6802F400120192019A009059
:1033C0000868002240F4800008600868052100F4C5
:1033D0008000009000980B20FEF706FE0B20FEF701
:1033E000FFFD0D2005210022FEF7FEFD0D20FEF75A
:1033F000F7FD0F2005210022FEF7F6FD0F20FEF756
:10340000EFFD102005210022FEF7EEFD1020FEF753
:10341000E7FD392005210022FEF7E6FD3920FEF701
:10342000DFFD452005210022FEF7DEFD4520FEF7E9
:10343000D7FD02B080BD000010B5B8B04AF2083028
:10344000C0F6000090E80E50D0E90540319132926C
:103450003393CDF8D0C0CDF8D4E0CDE9364031A8D3
:10346000002103F0F9FE40F2E861C2F200010860B9
:103470004AF22430C0F6000090E81E5080692A917C
:1034800030902AA800212B922C932D94CDF8B8C00F
:10349000CDF8BCE003F0E0FE40F6BC01C2F2000152
:1034A00008604AF2EC20C0F6000090E81E508069E7
:1034B0002391299023A80021249225932694CDF8C6
:1034C0009CC0CDF8A0E003F0C7FE40F27441C2F208
:1034D000000108604AF27830C0F6000090E81E5003
:1034E00080691C9122901CA800211D921E931F949C
:1034F000CDF880C0CDF884E003F0AEFE41F260016B
:10350000C2F2000108604AF29430C0F6000090E870
:103510001E50806915911B9015A8002116921793D3
:103520001894CDF864C0CDF868E003F095FE41F240
:103530006801C2F2000108604AF2B030C0F6000033
:1035400090E81E5080690E9114900EA800210F92F1
:1035500010931194CDF848C0CDF84CE003F07CFEF8
:1035600041F29871C2F2000108604AF25C30C0F684
:10357000000090E81E50806907910D9007A8002177
:10358000089209930A94CDF82CC0CDF830E003F0EE
:1035900063FE41F25C01C2F2000108604AF2403071
:1035A000C0F6000090E81E5080698DE81E5006901D
:1035B0006846002103F050FE41F25801C2F20001BA
:1035C000086038B010BD00002DE9F04186B000273A
:1035D00043F630000597CDE90377CDE901770097F1
:1035E000C4F20200016840F6004441F0800101602D
:1035F0000168C4F2020401F0800100910099009773
:103600000168002241F00101016001684FF4706817
:1036100001F00101009100990097016841F0020159
:103620000160016801F002010091009900970168B2
:1036300041F008010160016801F008010091009962
:103640000097016841F004010160016801F0040184
:10365000009100990097016841F010010160006835
:103660004FF4706100F01000009000982046FEF7C3
:1036700015FC04F580652846012100220126FEF78D
:103680000DFCCDE901860DF1040820464146CDE947
:103690000377FEF72DFB28464146CDE90166CDE9CB
:1036A0000377FEF725FB06B0BDE8F08180B586B054
:1036B00040F6586040F600020021C2F20000C4F259
:1036C0000002A72344F61F6CCDE90411CDE90211D5
:1036D000CDE90011C0E90023C0E9021C016180218D
:1036E0008161FEF7BFFF002818BFFDF777FB4FF49D
:1036F0008050029040F65860C2F2000002A9FFF725
:1037000017F8002818BFFDF769FB0020CDE900007D
:1037100040F65860C2F200006946FEF747FF0028F5
:1037200018BFFDF75BFB06B080BD000010B582B08E
:1037300040F6986041F20001C2F20000C4F20001BC
:1037400000240622632380E816008021CDE900448E
:10375000C3608161FEF786FF002818BFFDF73EFBBE
:1037600040F69860C2F200006946CDE90044FEF7D9
:103770001DFF002818BFFDF731FB02B010BD00008F
:1037800010B540F6987444F60040C2F20004C4F24A
:1037900000004FF4E13100220C2384E807002046AA
:1037A000C4E90322C4E90532E261FFF7B9F9002850
:1037B00018BFFDF713FB2068C16841F01001C1601C
:1037C00010BD000010B540F6D87045F2000C48F26C
:1037D000A062C2F20000C4F2000CC0F201024FF479
:1037E000805300214FF4806E0C24C0E900C2C0E970
:1037F0000231C0E904E4C0E90611FFF791F900289D
:1038000018BFFDF7EBFA10BD80B540F6187041F215
:103810000001C2F20000C4F2010100234FF00C0CC1
:103820004FF4E13280E80E00C0E90333C0E905C37C
:10383000C361FFF775F9002818BFFDF7CFFA80BD07
:1038400080B540F6587044F20041C2F20000C4F264
:10385000000100234FF00C0C4FF4E13280E80E0021
:10386000C0E90333C0E905C3C361FFF759F9002874
:1038700018BFFDF7B3FA80BD80B541F2180041F2E0
:103880000041C2F20000C4F2010100234FF00C0C11
:103890004FF4E13280E80E00C0E90333C0E905C30C
:1038A000C361FFF73DF9002818BFFDF797FA80BD07
:1038B000FEE70000FEE7000000F0070080F00703CD
:1038C000042B28BF04234FF0FF3C03380CFA03F30A
:1038D00038BF0020994381400CFA00F022EA000032
:1038E0000843704780B1D0E90F1230EEC02AC0E91A
:1038F00010120178C0ED060A80ED070A80ED0F2A4C
:1039000029B190ED080A70479FED2A0A704790EDA3
:10391000023A90ED010A90ED0A5A22EE033A90ED38
:10392000051A22EE000A35EE033A90ED105A90ED9A
:10393000034A80ED090A80ED0A3AD0E90C1232EE12
:10394000452AB4EE413A80ED0C2A22EE042AF1EE2B
:1039500010FA4163826380ED0B2A02DD80ED0A1AC2
:1039600008E0B1EE411AB4EE413AF1EE10FAB8BFF8
:1039700080ED0A1A90ED0A3A90ED041A30EE030A2F
:1039800032EE000AB4EE410AF1EE10FA80ED080AB8
:1039900004DD80ED081A90ED080A7047B1EE411A77
:1039A000B4EE410AF1EE10FAB8BF80ED081A90EDBE
:1039B000080A704700000000002808BF704780B563
:1039C00018303021FCF746FCBDE88040704700000D
:1039D000002818BF002A00D1704780B51368017015
:1039E0004360536828218360926880ED040AC260B6
:1039F000C0ED050A2030FCF72DFCBDE88040704783
:103A00002DE9F0414E78042E06D8054630460C4686
:103A10001746FDF78FF808B1BDE8F081A0780530B2
:103A2000C1B22046FDF7B6F80028F5D0DFB1204638
:103A30003946FDF789F8B0B1002E08BFBDE8F08126
:103A4000B888798800BA030C08BA40F22001C2F2A3
:103A5000000101EB860151F8047C020C2846214646
:103A6000B847BDE8F081288C0028024618BF012223
:103A700036D06F6A94F800C0397861454FF0000184
:103A80000CD01437288C013181424FF0000238BF2E
:103A9000012225D217F8143B6345F3D141F6641394
:103AA000C2F20003002A1860B6D0686A01EB8101F7
:103AB00000EB8108D8F808702FB120463946FDF791
:103AC00043F80028B8D1D8F80470B8F8022020468E
:103AD0003946FDF789F900289ED407EBC007ABE70C
:103AE00041F66411C2F200010860BDE8F0810000F7
:103AF000EFF30980BFF36F8F154B1A681EF0100F9C
:103B000008BF20ED108A20E9F04F10602DE9090070
:103B10004FF0500080F31188BFF34F8FBFF36F8FCA
:103B200005F0A8F94FF0000080F31188BDE8090006
:103B300019680868B0E8F04F1EF0100F08BFB0EC2D
:103B4000108A80F30988BFF36F8F704700BF00BFF2
:103B50007011002080B540F6D873C2F20003D3F88C
:103B600000C0DCF8143043F04003CCF81430DCF82B
:103B70000C3043F01003CCF80C3040F6D043C2F2C6
:103B80000003D3F800E0DEF800C02CF00103CEF80B
:103B90000030DEF80030DB070AD000BFDEF800306E
:103BA00023F00103CEF80030DEF80030DB07F5D15A
:103BB00045F20403C4F20003CEF80830CEF80C003E
:103BC000CEF81010CEF80420DEF8000040F480207B
:103BD000CEF80000DEF8000040F00100CEF8000052
:103BE00080BD0000B0B540F27015C2F20005AA68B1
:103BF00005F11B0450705180106891880022234603
:103C0000FDF71CF82968EA680123A8765380C2B240
:103C100008462146FFF76EFA286805F12301642261
:103C2000FFF7B4F9B0BD0000000000000000000084
:103C3000074B19680868B0E8F04F80F30988BFF3B4
:103C40006F8F4FF0000080F31188704700BF00BFF6
:103C50007011002070B5C2B0469C89B202AE0096C9
:103C6000FDF738F9054648B102A920462A46FCF777
:103C7000D8FA00260136B542FCD100E00026E9B2B0
:103C800002A8FDF703F90146000A721CB3B2E05422
:103C9000B01C92B280B2A15442B070BD80B54FF05A
:103CA000500080F31188BFF36F8FBFF34F8F05F083
:103CB00069FD30B14EF60450CEF200004FF0805155
:103CC0000160002080F3118880BD000070B592B0C3
:103CD00006AC20463021FCF7BDFA002543F6400033
:103CE0000595CDE90355CDE901550095C4F20200D3
:103CF0000168022641F080510160006800F08050A8
:103D00000090009847F200000095C4F2000001689E
:103D100041F480410160006800F480400090009808
:103D20000120099010200A9008200696CDE90C6524
:103D30000E90A820CDE90F06042011902046FEF732
:103D400097FA88B90F20CDE901064FF4A0500490EE
:103D50004FF48050059001A805210395FEF758F90E
:103D6000002804BF12B070BDFDF738F84EF6885039
:103D7000CEF20000016841F4700101604FF0006173
:103D800040F8801C7047000080B540F65860C2F2D1
:103D90000000FEF737FD80BD80B540F69860C2F2A6
:103DA0000000FEF72FFD80BD80B540F6D860C2F25E
:103DB0000000FEF727FD80BD10B540F6FF3E03680A
:103DC000C4F2000E40F2004C7045C4F2010C0FDC4E
:103DD000B0F1804F19D040F20042C4F2000290428C
:103DE00013D040F60002C4F2000290420DD010E061
:103DF00040F60042C4F20002904206D0604504D072
:103E00000022C4F20102904203D14A6823F07003F9
:103E1000134341F6FF72C4F2000290420DDC70457C
:103E20001FDCB0F1804F41D040F20042C4F20002EA
:103E300090423BD040F6000221E043F6FF72C4F20C
:103E40000102904220DC42F20002C4F200029042E1
:103E50002CD00022C4F20102904227D0604525D028
:103E600028E040F60042C4F2000290421ED041F623
:103E70000002C4F20002904218D041F60042C4F29F
:103E80000002904212D015E044F20002C4F2010296
:103E900090420BD044F60002C4F20102904205D0D9
:103EA00044F20042C4F20102904203D1CA6823F4F2
:103EB0004073134323F080024B69D1F800E08C6813
:103EC0001A430260C46240F48062C0F828E0624590
:103ED00004BF096901630121416110BDD0F808C028
:103EE00011432CF47F4C41EA032141EA0C0181602B
:103EF00070470000826822F07002114341F0070110
:103F000081607047D0F820C0036A23F00103036288
:103F1000836923F0F00343EA02122CF00A031943E9
:103F20008261016270470000036A23F0100303629C
:103F30008369D0F820C023F4704343EA02322CF0A6
:103F4000A00343EA01118261016270472DE9F04349
:103F5000447890F802C0A4F1030EBEF1020F0CD316
:103F6000013C012C1ED8002A18BFBCF1000F1BD148
:103F7000C3B1BEF1010F01D914E09BB1BCEB410FFD
:103F800010D1002908BFBDE8F0839A1E013000BFA0
:103F900010F8023F013922F8023F477847EA03232D
:103FA0001380F5D1BDE8F08300244FF0000805E050
:103FB00008F10108E04504F10804D9D008F103092B
:103FC0001719002503E000BF0135082DF0D0661950
:103FD0008E42F9D210F80960EE4006F001067E55D7
:103FE000F2E70000B0B582B040F69870C2F200006F
:103FF000FEF70EFD40F27015C2F200052868016858
:104000000968C9061FD50021019101680A6801925B
:10401000496801910199FEF7D1FC40F61040C2F2C7
:104020000000006805F123044068686805F11B0280
:104030002146FFF7E5FC01212868C5F888102146D4
:104040006422FEF7A3FF02B0B0BD000080B582B0CD
:1040500040F6D870C2F2000000680168890632D4C8
:1040600045F20001C4F200010968C9064CD50021DF
:10407000009101682423009140680090009840F668
:10408000D040C2F20000006802680168120321F00B
:10409000010101604168436089B21DD402681229A0
:1040A00042F400220260026842F0010202602BD159
:1040B00041F25070C2F2000004F02EF9002001F02D
:1040C000A9FC02B080BD0021019101680191406806
:1040D0000190019802B080BD46F21002C4F20202C3
:1040E0001368122923F400231360026842F00102CE
:1040F000026009D141F25070C2F20000243004F095
:104100000BF9002001F086FC02B080BD80B5806B09
:104110000021C185C184FEF779FC80BD10B5846B98
:104120002068406994F83910212907D110F08000E7
:1041300004D00020E084204600F06EF8206840693A
:1041400094F83A10222907D110F0400004D0002042
:10415000E085204600F046F8E06B40F01000E06398
:104160002046FEF753FC10BD80B50168806B0968DE
:10417000C90511D40021C1850168CA6822F4807282
:10418000CA604A6922F001024A614A6922F040028B
:104190004A61202180F83A10FEF746FF80BD0000FA
:1041A00080B5806BFEF742FF80BD000080B50168DE
:1041B000806B0968C9050BD40021C184006841697E
:1041C00021F080014161C16841F04001C16080BDC2
:1041D000FEF7D0FF80BD000080B5806BFEF7CCFFFE
:1041E00080BD00000168CA6822F49072CA604A6902
:1041F00022F001024A61202180F83A107047000045
:1042000080B50168CA6822F04002CA60202180F8A7
:104210003910FEF7AFFF80BD0168CA6822F0C00206
:10422000CA60202180F839107047000080B590F8EE
:104230003A10222938D18168B1F5805F0AD102682D
:104240000369816A52688BB1836AD2B20A80591CB1
:10425000816211E0016802694968002A826A18BF18
:1042600001F07F01531C8362117005E0836A6FF3D4
:104270005F220A80991C8162C18D01390A04C185BF
:1042800018BF80BD0168CA6822F02002CA60CA68EF
:1042900022F48072CA604A6922F001024A61202138
:1042A00080F83A10FEF7C0FE80BD0000B0B50546AC
:1042B000006805F108030ECB0469194324F4405447
:1042C000224302616A69EB691143C26849F20C64D6
:1042D0001943A2431143C1604169AA6921F44071A5
:1042E0001143416141F20041B3F5004F40F4806059
:1042F000C4F2010124D1884246D1FDF771FF6B68F9
:104300001921A0FB01015A00DB0FFBF759FF48F20E
:104310001F51C5F2EB11A0FB01235A096FF0630393
:1043200002FB0300322303EBC000A0FB01014FF4AA
:10433000F87000EA111000EB0210C1F3421167E0BF
:10434000884244D1FDF74CFF6B681921A0FB0101A5
:104350009A009B0FFBF734FF48F21F51C5F2EB1197
:10436000A0FB01235A096FF0630302FB0300322311
:1043700003EB0010A0FB0101F02000EA511000EB5C
:104380000210C1F3431143E0FDF718FF6B681921D8
:10439000A0FB01015A00DB0FFBF712FF48F21F518F
:1043A000C5F2EB11A0FB01235A096FF0630302FB76
:1043B0000300322303EBC000A0FB01014FF4F870AF
:1043C00000EA111000EB0210C1F3421120E0FDF7EA
:1043D000F5FE6B681921A0FB01019A009B0FFBF70A
:1043E000EFFE48F21F51C5F2EB11A0FB01235A0961
:1043F0006FF0630302FB0300322303EB0010A0FB0A
:104400000101F02000EA511000EB0210C1F343114A
:104410002A6808439060B0BD90F83910212927D14F
:104420008168B1F5805F0ED1016AD0F800C00B88B9
:1044300002696FF35F23002ACCF8043014BF013106
:104440000231016205E0016A02684B1C03620978CF
:104450005160C18C01390A04C18418BF70470068DB
:10446000C16821F08001C160C16841F04001C160B4
:10447000704700002DE9F0410446006800680840DC
:10448000884202D10020BDE8F0811D460E469046CC
:104490005F1C04E0206800683040B042F2D0002F7A
:1044A000F8D02DB1FDF700FDA0EB0800A842F1D92E
:1044B0002068C16821F4D071C160416921F0010117
:1044C0004161202084F8390084F83A00002084F803
:1044D00038000320BDE8F0812DE9F04186B040F2BC
:1044E000B43806464FF0FF30C2F200080C46ADF873
:1044F0001600A52098F800108DF80C00082003ADD8
:10450000ADF80D008DF80F1028460421FF22FCF7AE
:104510007FFD8DF8100040F20130ADF8110040F23F
:104520000010C0F20100019040F20110ADF8080047
:10453000284607214FF6FF728DF800608DF8014084
:104540000727FCF74BFD01AE0246ADF816003046DA
:104550000621FCF743FD6C460246ADF816002046E6
:104560000221FCF73BFD013DADF8160015F8010FE7
:1045700000F0CCF8013FF9D1751E062615F8010FA1
:1045800000F0C4F8013EF9D1002500BF605D00F0E5
:10459000BDF80135012DF9D000240DF1160500BF3D
:1045A000285D00F0B3F80134012CF9D098F8000030
:1045B000013088F8000006B0BDE8F08183B02DE935
:1045C000F04F8AB0814613A80EC013A80090A52012
:1045D0008DF80C00C9EB091040F2B4380630C2F275
:1045E0000008ADF80D0098F8000003AD4FF0FF365D
:1045F0008DF80F0028460421FF22ADF81660FCF765
:1046000007FD8DF81000A9F1010040F201310628E4
:10461000ADF8111000F27480DFE800F00407727248
:104620000A720D0040F2011007E04FF4817004E0BF
:1046300040F2031001E04FF48270ADF80400012055
:10464000C0F20110CDF80600284607214FF6FF7290
:104650000724FCF7C3FC01AE0246ADF81600304655
:104660000621FCF7BBFC013DADF8160015F8010F63
:1046700000F04CF8013CF9D1741E062514F8010F26
:1046800000F044F8013DF9D1B9F1000F27DDBDF884
:1046900016600DF1180AAAF1010B002400980F25ED
:1046A00000F110010091D0E90112D0F80B30CDE9F2
:1046B0000712CDF823300068B2B2069050460F21A1
:1046C000FCF78CFC06465F4617F8010F00F01EF859
:1046D000013DF9D101344C45E0D1ADF816604FF001
:1046E000FF340DF1160500BF2819407800F00EF8D0
:1046F0000134F9D298F800000026013088F8000053
:1047000030460AB0BDE8F04F03B0704780B582B0C4
:104710008DF8070041F21800C2F200000DF1070108
:1047200001220F23FEF784FC02B080BD80B540F665
:104730005870C2F20000FEF76BF980BD80B582B000
:1047400041F20040C4F201000068C00633D50020E9
:10475000019041F21800C2F200000168406B0A6843
:104760004FF4007301924968019101990068016852
:10477000026811F4002122F00102026042684360E5
:104780000368C2F5007223F40023194481F4002366
:104790000360036845F27851C2F2000143F001035F
:1047A00018BF01F50071036041F22C2092B2C2F2F1
:1047B000000001F089F902B080BD0000F0B583B0BF
:1047C0001E460C4641F2047140F65263C2F20001EB
:1047D000C2F2000384E80B0001274FF48030154635
:1047E00041F23C721F80C3F8020044F63D1044F6CB
:1047F0008D13C2F20002C0F60000C0F60003E260B2
:1048000044F6651CCDE9003044F61913C0F6000CDF
:10481000C0F60003084601211770CDF808C0FEF766
:104820000FFDE168002004F11B02A0764A60C4E994
:104830000465C4E92700C4E922704FF49660208320
:1048400003B0F0BD80B582B000208DF807000DF1F7
:1048500007020520022100F0ADF802B080BD000083
:1048600080B582B001208DF807000DF10702052008
:10487000022100F09FF802B080BD000080B5042046
:104880000921FFF7AFF980BD80B504200B21FFF7A8
:10489000A9F980BD80B503203D21FFF7A3F980BDB4
:1048A00080B503203821FFF79DF980BD80B5012038
:1048B0000221FFF797F980BD80B582B0ADF8060000
:1048C0000DF1060206203D2100F074F802B080BD13
:1048D00080B582B00020019001AA0620382100F0A6
:1048E00069F802B080BD000080B582B0012001905F
:1048F00001AA0620382100F05DF802B080BD00005A
:1049000080B582B00320019001AA0620382100F072
:1049100051F802B080BD0000002A08BF704740F285
:104920001C20C2F2000008440138591E11F8013F52
:10493000013A00F8013FF9D170470000002A08BF92
:10494000704740F26820C2F2000000EB41000238DC
:10495000991E00BF31F8023F013A20F8023FF9D119
:1049600070470000002A08BF704740F2E820C2F2FA
:10497000000000EB41000238991E00BF31F8023FF1
:10498000013A20F8023FF9D170470000002A08BF21
:10499000704740F26830C2F2000008440138591EE6
:1049A00011F8013F013A00F8013FF9D170470000CA
:1049B000FEE70000B0B540F27015C2F20005AB682A
:1049C00005F11B0458705980186899882346FCF734
:1049D00035F92968EA680123A8765380C2B20846EF
:1049E0002146FEF787FB286805F123016422FEF7C4
:1049F000CDFAB0BD002848BF704700F01F0101226A
:104A000002FA01F14EF200124009CEF2000242F821
:104A1000201070474EF60C50CEF200000068C0F334
:104A2000022070474EF6145300F00F02CEF200033E
:104A300009011A4400F16043B0F1FF3FC8BF03F51C
:104A400064421170704700004EF60C51CEF2000126
:104A50000A684FF6FF031A4060F30A2242F08060B2
:104A600040F0FD700860704790ED001AB4EE401AF7
:104A7000F1EE10FA02DD80ED000A7047B1EE400A57
:104A8000B4EE401AF1EE10FAB8BF80ED000A70479C
:104A90002DE9F04F81B0002800F0A3808B4600295B
:104AA00000F09F801646002A00F09B801D46002BD8
:104AB00000F09780DDF82890B9F1000F00F09180A8
:104AC000DDF82C80B8F1000F00F08B8040F6E80A8A
:104AD000C2F2000ABAF87E12BAF87C2241F6FF74DC
:104AE000891A0BB2002B48BF21448BB201EBD331A2
:104AF00009B202EB61010AB20B46002A48BF234407
:104B0000B2F5005FA8BF0B1B0380BAF87C029FB20E
:104B1000394602F069FBBAF87E02B1EE400A394626
:104B200086ED000A02F060FBB1EE400A85ED000A56
:104B30009AED9D0A9FED2C1A9AED9E2A80EE010AAD
:104B400082EE011ABAF88002BAF88222BDEEC00ADB
:104B500010EE101A4718BDEEC10A39B210EE103A25
:104B60001A440029384613B248BF2044B1F5005F0B
:104B70001146A8BF381B002B48BF2144B3F5005F86
:104B8000A8BF111B411A0AB20B4612F5805FB8BFCD
:104B90002344B2F5805FC8BF0B1B99B203EBD13140
:104BA00009B2A0EB610001B20246002948BF2244CD
:104BB000B1F5005FA8BF021BABF80020BAF8800275
:104BC00094B2214602F010FBBAF88202B1EE400A1C
:104BD000214689ED000A02F007FBB1EE400A88ED9C
:104BE000000A01B0BDE8F08FDB0F493AB0B582B0E2
:104BF00040F2C435C2F2000528790024D5F805102A
:104C0000C0F6060400F07F02204600F0CDFF2879B0
:104C100001A900F07F0044EA8000012200F0C4FFF7
:104C20009DF807109DF80400BDF80520552928704F
:104C3000A5F80120E97006D0D5F8090018B1287947
:104C400040F08000287102B0B0BD000080B582B095
:104C500001290BD039B902884188043090EC040A4C
:104C6000104603F0B7FB002002B080BD811C021D7E
:104C700000F1080300F10C0C00F1100ECDE900CE9C
:104C800000F0FAFD002818BF012002B080BD00002E
:104C900010B540F2C434C2F20004207940F6C801D5
:104CA00000F080000530207140F24800C2F20000A0
:104CB0000068C2F20001C4F80510C4F80900FFF74B
:104CC00095FFE07855280AD1D4F80920002A08BFBA
:104CD00010BD40F6C800C2F200000021904710BD90
:104CE00070B58AB040F6C03401260020C2F200043C
:104CF0006D460896CDE90606CDE90000CDE9020033
:104D0000CDE9040020462946FCF7F8F92046FCF7D7
:104D1000E5FD20460221FCF78BF940F6E8340E2031
:104D2000C2F200040990CDE9046020462946FCF750
:104D3000E5F92046FCF7D2FD20461021FCF778F972
:104D40000AB070BD80B5002818BF002900D180BD11
:104D5000002AFCD0002BFAD040F2784CC2F2000CB2
:104D60009CF800C0BCF1050F88BF80BDDFE80CF0E7
:104D70000306090C0F1200F06FFD80BD00F05EFA13
:104D800080BD00F077F980BD00F0BEF880BD00F076
:104D900035FA80BD00F062FA80BD0000B0B5002891
:104DA00032D001680446887A40F278450328C2F27E
:104DB00000050AD0898A8A0507D4012805D002286F
:104DC00001D0C80503D5012000E00220287001F0C1
:104DD00089FA00281CBF012028702878052888BF80
:104DE000B0BDDFE800F00603090C030F02202074B9
:104DF000B0BD03202074B0BD00202074B0BD0120E0
:104E00002074B0BD03202074B0BD000070B584B024
:104E100040F29844C2F2000404F5FC71002091ECC9
:104E2000030A6D460390CDE901000090284600F08A
:104E3000EFFC207C032810D104F110006FF0030177
:104E40006A1892ED010A0431BDEEC00A10EE102A74
:104E50000C2920F8142FF3D152E09FED2A0A291FC4
:104E60006FF0130091ED011A221882ED0D1AB0EEC9
:104E7000C11AB4EE410AF1EE10FA00F1140001F18A
:104E80000401B8BFB0EE410A3C28EBD1B1EE041AE0
:104E9000B4EE410AF1EE10FA0EDD81EE000A6FF079
:104EA000130000BF211891ED0D1A143020EE011AE5
:104EB0003C2881ED0D1AF5D1A4F11405642600BF3C
:104EC00095ED0C0AD5ED0D0AA019FEF70BFD48363D
:104ED000B6F5C27F05F11405F2D1204600F0F0F9D5
:104EE00004F13C016FF0130091ED120A2318BDEE9E
:104EF000C00A1430483110EE102A3C281A87F3D12A
:104F000004B070BD00000000B0B5002818BF002933
:104F100000D1B0BD1446002AFBD01D46002B08BFAF
:104F2000B0BD2A4600F0F0FA28689FED0B2AB0F9D0
:104F3000040095ED830A01EE100AB8EEC11A21EEC5
:104F4000021A30EE010ADFED050A9FED051A02F0A4
:104F5000C5F884ED000AB0BDACC5A7B6DB0F49C0EB
:104F6000DB0F494010B52DED048B9FED3D0A9FED01
:104F70003D1A40F298446FF013004C21C2F2000435
:104F80002218936A1430B3F902303C2802EE103A2A
:104F9000B8EEC22A22EE002A82ED0C2A04EB0103AD
:104FA00093ED122A01F1480122EE012A82ED0B2A2B
:104FB000E6D194ED070A94ED0C1A94ED113A31EE16
:104FC000402A94ED164A30EE010A30EE031A31EE13
:104FD000041ABDEE005A9FED246A21EE051A81EEF7
:104FE000061A32EE032A32EE442AB5EE005AE06881
:104FF00022EE052A33EE400A30EE040A84ED7B2AC5
:1050000090ED002A606820EE050A84ED7C0A90EDA0
:10501000400A9FED168A9FED169A84ED7D1A32EEB6
:10502000400AF0EE480AB0EE491A02F057F8D4E907
:10503000021084ED880A90ED021A91ED402AF0EEFC
:10504000480A31EE420AB0EE491A02F047F8E06829
:1050500084ED890A4068C4F82802BDEC048B10BDB9
:105060000A01DA390000FA43CDCC4C3EDB0F49C0CF
:10507000DB0F494070B52DED028B002818BF0029C9
:1050800002D1BDEC028B70BD1446002AF9D01D463A
:10509000002BF6D02A4600F037FA286840F29446F2
:1050A000808AC2F20006810640F29041C2F20001FD
:1050B00004D40022B3EE080A0A7007E00A783AB96D
:1050C00001220A7000229FED1C0A326085ED620AFF
:1050D000097840F28C450129C2F2000516D100077B
:1050E00016A008BF043096ED000A90ED008A04F087
:1050F00063FE96ED001A9FED132A28EE000A85ED57
:10510000000A31EE020A86ED000A01E00020286064
:1051100096ED000A9FED0C1AB4EE410AF1EE10FA7A
:1051200005DD9FED0A1A30EE010A86ED000A2868B7
:105130002060BDEC028B70BD00007042CDCCCC3E37
:105140003333333F7C594444DB0FC940DB0FC9C0C4
:1051500010B52DED028B40F29844C2F200040320FA
:10516000207400F011FE206000F0DAFDE06000F035
:105170003DFE606000F000FE9FED128A4AF60801D5
:10518000A06004F5E670C0F60001B0EE480A00F039
:1051900001FD4AF60C0104F5EE70C0F60001B0EE18
:1051A000480A00F0F7FC00200021C4F24000CCF2D5
:1051B0004001C4E98401C4E98601FFF7D3FEBDECD8
:1051C000028B10BD6F12033BB8B1017C427C8A4256
:1051D00008BF704722B119B90022C0F808220BE0BD
:1051E000012A01D0012903D0022A05D0022903D1C6
:1051F000D0F82022C0F80C2241747047B0B50028C6
:1052000018BF002900D1B0BD1446002AFBD01D46AE
:10521000002B08BFB0BD2A4600F076F928689FED44
:10522000061AB0F9040000EE100AB8EEC00A20EE2B
:10523000010A84ED000AB0BD0AD723BC002818BFBC
:10524000002900D17047002AFCD0002B08BF70470E
:10525000002303600B60136070470000002818BF34
:10526000002900D17047002AFCD0002B08BF7047EE
:1052700010B51B68B3F902E0B3F900C0B3F90440FC
:105280000EEB8E035B0000EE103AB8EEC00A80ED24
:10529000000A0CEB8C004042400000EE100A04EBC8
:1052A00084004042B8EEC00A400081ED000A00EEE2
:1052B000100AB8EEC00A82ED000ABDE8104070473F
:1052C000B0B52DED028B82B004460020CDE9000080
:1052D00000F060FD41F26C00C2F20000018844F66B
:1052E000D352C1F26202A1FB021240F2640540886F
:1052F0009109C2F2000500EE101A95ED001A02EEB7
:10530000100A9FED773AB8EE400AB8EE422A81EED5
:10531000001A82EE032A40F2E060C2F2000080ED43
:10532000000A40F2B830C2F200009FED6E8A80EDB4
:10533000001A31EE020A41F2DC60B5EE400AC2F218
:105340000000F1EE10FAD8BFB0EE480A80ED000A76
:1053500010EE100AFBF7E9F89FED5D0B53EC102BF4
:10536000FBF72AF89FED5C0B53EC102BFBF724F8AE
:10537000FBF7EEF840F2A831C2F20001086040F2FB
:105380007011C2F2000100EE100A91F89A00BDEE11
:10539000C00A10EE102A01280A8360D00028B0EE5F
:1053A000480A5ED101A8694600F0CCFC9DED001AC8
:1053B0009FED4E2AB4EE421AF1EE10FA0FDAB2EE79
:1053C000040AB4EE401AF1EE10FAB0EE480A48DDD5
:1053D00081EE020A9FED4A1A20EE010A41E041F2F5
:1053E000E860C2F200004078411EC8B202280BD823
:1053F00049B240A202EB81014FF0360C1B2391ED24
:10540000000A10FB03C002E09FED390A282085ED59
:10541000000A9DED010A01EE100AB8EE411A40F2B1
:105420008401B4EE410AC2F20001F1EE10FA086004
:1054300015DD95ED002AB4EE420AF1EE10FA42DADB
:1054400032EE400A32EE411A80EE010A9FED2D1A2B
:105450009FED2B2A20EE010A30EE020A01E09FEDBB
:10546000220A04F184006FF0470100BF421892ED58
:10547000121A4831B0EEC11AD82938EE018AF5D196
:10548000B4EE408AF1EE10FA19DD80EE080A94EDD0
:10549000211A94ED332A94ED453A94ED574A20EEC3
:1054A000011A84ED211A20EE021A84ED331A20EE3F
:1054B000031A20EE040A84ED451A84ED570A02B05F
:1054C000BDEC028BB0BD9FED0E0ACAE700BF00BF66
:1054D000333333333333F33F0000000000005940CF
:1054E00000007AC40000000000007A47000070420B
:1054F00000004842000070420000B4420000F04248
:1055000000C05A46005043472DE9F0472DED048B6B
:10551000002900F096808046002800F09280924694
:10552000002A00F08E80DAF800408946608800F199
:105530000A0189B215290DD300B2FAF7E5FF9FEDF4
:10554000440B53EC102BFAF737FFFBF701F808EE8A
:10555000100A01E09FED468A208800F10A0189B215
:1055600015290DD300B2FAF7CFFF9FED3B0B53EC9B
:10557000102BFAF721FFFAF7EBFF09EE100A01E012
:105580009FED3C9AA08AC10704D1810706D50AF590
:10559000057101E00AF5047191ED008A410704D418
:1055A000000706D50AF5077001E00AF5067090EDD0
:1055B000009A0AF5E670B0EE480A00F0CFFA0AF554
:1055C000EE70B0EE490A00F0C9FA18EE100AFAF7C8
:1055D000ACFF9FED230B044657EC106B32463B4665
:1055E0000D46FAF776FF60B99FED1F0B204653EC8E
:1055F000102B2946FAF752FF002804BF0020CAF8F2
:10560000D00119EE100AFAF790FF32463B460446E5
:105610000D46FAF75EFF60B99FED130B204653EC81
:10562000102B2946FAF73AFF002804BF0020CAF8D9
:10563000E001DAF8D001C8F80000DAF8E001C9F8B2
:105640000000BDEC048BBDE8F08700BF00BF00BFC9
:10565000FCA9F1D24D62803FFCA9F1D24D6280BF1E
:105660007B14AE47E17AB43F7B14AE47E17AB4BF16
:10567000000000000000008010B52DED028B84B00A
:1056800040F298440020C2F200040390CDE90100EA
:1056900003A802A901AA2346FFF754FB2068817AD8
:1056A000207C03294AD1022848D0606890ED400A46
:1056B000B1EE400A04F080FB6068B0EE408A90EDE5
:1056C000401AB1EE410A04F0CFFA9DED031A9DEDA8
:1056D000022A20EE013A20EE020A28EE011A30EEEC
:1056E000411A28EE024A9DED010A84ED7F1ADFED92
:1056F0002D0A9FED2D1A33EE043A84ED7E3A01F027
:10570000EDFC6068F0EE400A90ED400A04F5C270CE
:10571000C4ED820AFEF7E6F840F27010C2F2000013
:10572000B0F89800B1EE400A84ED800AA0B10128DB
:105730001ED1B9EE000AB1EE001A11E0022903D021
:10574000012901D0022829D19FED180A0020C4F8B0
:105750000002C4F8F8011FE0B8EE080AB0EE081A1B
:1057600084ED841A84ED850A84ED861A84ED870A17
:1057700094ED7E0A94ED841AD4ED850A00F01CFAAB
:1057800094ED7F2A94ED861AD4ED870A84ED7E0A83
:10579000B0EE420A00F010FA84ED7F0A04B0BDECCE
:1057A000028B10BDDB0F49C0DB0F49400000000039
:1057B00080B540F29840C2F20000FFF7EFFA80BDDA
:1057C00082B00020019040F2651003F029FAFFF743
:1057D000BFFC40F2984440F28846C2F2000401AD9A
:1057E000C2F20006FFF7E4FF2046FFF7EDFCFFF7EB
:1057F000B9FBFFF741FFFBF76FF9FAF7B3FF284654
:10580000022101F011FD002003F0A0F83060E9E76B
:105810009FED0F2A9FED0F5A30EE203A21EE022A1B
:1058200030EE604A21EE051A30EEC00A34EE024A2C
:1058300032EE432A33EE013A30EE010A80ED002ABF
:1058400080ED014A80ED023A80ED030A704700BF07
:10585000EB5138BEAF4761BE002818BF002900D108
:105860007047002AFCD0002B08BF7047002303605C
:105870000B601360704700002DE9F04F83B040F6D5
:10588000E805C2F20005884695F88412002405292F
:105890001FD000295ED1012085F88402D5F83C0193
:1058A000EA68D5F844120088D5F814311288C5F892
:1058B0007412A5F88002C5F86C32A5F87C22C5F8F0
:1058C0007812A5F88202C5F87032A5F87E2200246D
:1058D00040E0DDE90CBA41461E4617468146CDF848
:1058E00000B0CDF804A0FFF7D3F897ED000A9FEDC4
:1058F0001B1A9FED1B2A30EE010A87ED000A96ED78
:10590000000AB9F8001030EE020A86ED000A9BED9D
:10591000000AA5F8021130EE010A8BED000A9AED9B
:10592000000AB8F8001030EE020A8AED000A386862
:1059300085F88442C5F8040130680124C5F80801DF
:10594000DBF80000A5F83212C5F83402DAF80000DE
:10595000C5F83802204603B0BDE8F08FCDCCCCBDF1
:10596000CDCCCC3D45F26C50C2F20000002101606C
:105970007047000082B001F065FC41F29C7714A4EE
:1059800014A5C2F200070FF264080FF2740901AE09
:10599000019000BF204604F087FC284604F084FCF8
:1059A000F868B0F90210404604F03AF93869B0F9E5
:1059B0000210484604F034F9204604F075FC2846ED
:1059C00004F072FC3046052101F02EFCE2E700BF36
:1059D0000D000000202A202A202A202A202A202AFE
:1059E000202A202A202A202A0D00000066726963DE
:1059F000305F7370656564203A2025640D0A0000ED
:105A000066726963315F7370656564203A2025644E
:105A10000D0A0000F0B581B040F2EC6700EBC00663
:105A2000C2F2000757F8260007EB8605686003F00E
:105A300099FE2C4654F8101F47F826004A0042BF32
:105A400021F080412160E860A86950B18047216859
:105A500068B1286A41F02041216030B1804701B02F
:105A6000F0BD206820F00040206001B0F0BD21F0C2
:105A70000040206001B0F0BD80B5EFF3108CEFF373
:105A8000108172B6416803698B4284BF016801616D
:105A90000269D0E9023112F801EB01330139C0E9A2
:105AA000023102618CF31088704680BD034688186D
:105AB00001384FF0000CC3E900100020C3E9022CAC
:105AC00019615961704700002DE9F0470546EFF371
:105AD0001089EFF3108072B621B3AC6814B32F466F
